:1000000000800020BD010000F10A0000F10A00009C
:10001000F10A0000F10A0000F10A0000BD0A000028
:10002000BD0A0000BD0A0000BD0A0000F10A000080
:10003000F10A0000BD0A0000F10A0000AD0A00004C
:10004000F10A0000F10A0000F10A0000F10A0000C4
:10005000F10A0000F10A0000F10A0000F10A0000B4
:10006000F10A0000F10A0000F10A0000F10A0000A4
:10007000F10A0000F10A0000F10A0000F10A000094
:10008000F10A0000F10A0000F10A0000F10A000084
:10009000F10A0000F10A0000F10A0000F10A000074
:1000A000F10A0000F10A0000F10A0000F10A000064
:1000B000F10A0000F10A0000F10A0000F10A000054
:1000C000F10A0000F10A0000F10A0000F10A000044
:1000D000F10A0000F10A0000F10A0000F10A000034
:1000E000F10A0000F10A0000F10A0000F10A000024
:1000F000F10A000059130000F10A0000DD160000AB
:10010000F10A0000151A0000F10A0000F10A0000CF
:10011000F10A0000F10A0000F10A0000F10A0000F3
:10012000F10A0000F10A0000F10A0000F10A0000E3
:10013000F10A0000F10A0000F10A0000F10A0000D3
:10014000F10A0000F10A0000F10A0000F10A0000C3
:10015000390800005108000069080000810800000B
:10016000F10A0000D11C0000F10A0000F10A0000B1
:10017000F10A0000F10A0000F10A0000F10A000093
:10018000F10A0000F10A0000F10A0000F10A000083
:10019000F10A0000F10A0000F10A0000C90B00009A
:1001A000190C0000A10C00005D0D0000E10D000025
:1001B000F10A0000F10A0000D90400004F4B4CF294
:1001C000205210B51A804DF628121A8000BF00BFC9
:1001D00000F092FC4A4B4FF010621A60494A9A6054
:1001E000494ADA60494B1A6812F4807204D14849CE
:1001F0000A604FF4A8521A60464B1A7802F00802BF
:10020000D2B21AB11A7842F008021A70424B43482F
:10021000434C2A221A700023424A02E0195999508D
:10022000043399188142F9D33F4B404A002101E041
:1002300043F8041B9342FBD33D4B00221A603D4B15
:100240003D4A802103F8011B9342FBD13B4B0A221C
:100250001A703B4B24221A70A02203F8012C394A51
:10026000137803F00203DBB2002BF9D0354A137880
:1002700003F01003DBB2002BF9D1324A137803F0FC
:100280000C03082BFAD1304B03221A7040225A700B
:100290002C4A137803F02003DBB2002BF9D0294A53
:1002A000137803F04003DBB2002BF9D0274B284A28
:1002B0001A6002225A60274B20221A70214A1378B2
:1002C00003F00C030C2BFAD1234A244B1A60244B65
:1002D000244A1A60072243F8042C62B600F024FE78
:1002E0000B4B1B68DC0702D51F4800F091FD02F0A4
:1002F000F3FB00F007FC00F0D1FBFEE70E20054009
:1003000030800440823F04000100002B10D00340E5
:1003100014D0034002D0074000E007403C91FF1F8B
:10032000303800005089FF1F3C91FF1F5495FF1F7C
:1003300008ED00E000E400E05FE400E0005006406B
:100340000140064006400640044006404480044008
:100350000000030100400640C01005000480044076
:1003600014E000E0FF76010000DD6850FFFFFFFFB2
:10037000FFFFFFFFFFFFFFFFFFFFFFFFFFFFFFFF8D
:10038000FFFFFFFFFFFFFFFFFFFFFFFFFFFFFFFF7D
:10039000FFFFFFFFFFFFFFFFFFFFFFFFFFFFFFFF6D
:1003A000FFFFFFFFFFFFFFFFFFFFFFFFFFFFFFFF5D
:1003B000FFFFFFFFFFFFFFFFFFFFFFFFFFFFFFFF4D
:1003C000FFFFFFFFFFFFFFFFFFFFFFFFFFFFFFFF3D
:1003D000FFFFFFFFFFFFFFFFFFFFFFFFFFFFFFFF2D
:1003E000FFFFFFFFFFFFFFFFFFFFFFFFFFFFFFFF1D
:1003F000FFFFFFFFFFFFFFFFFFFFFFFFFFFFFFFF0D
:10040000FFFFFFFFFFFFFFFFFFFFFFFFFEFFFFFFFD
:1004100008B549F23C10074BC1F6FF701B1A062BBA
:1004200000D808BD40F20003C0F20003002BF8D052
:100430009847F6E73F91FF1F08B549F23C1049F293
:100440003C13C1F6FF70C1F6FF731B1A9B1003EB40
:10045000D373591000D108BD40F20002C0F200026F
:10046000002AF8D09047F6E710B549F23C14C1F6DF
:10047000FF74237873B9FFF7CBFF40F20003C0F29B
:1004800000032BB143F63000C0F20000AFF3008050
:100490000123237010BD00BF08B540F20003C0F275
:1004A00000034BB143F6300049F24011C0F20000A6
:1004B000C1F6FF71AFF3008049F23C10C1F6FF7046
:1004C00003682BB140F20003C0F2000303B1984768
:1004D000BDE80840FFF7B0BFF8B5164B164D1A68D7
:1004E00042F080721A60154B1A6842F001021A60DD
:1004F000134B2E681C680FE0237A63B121682F68C4
:100500000B68204698472A68E388D21B12099A4252
:10051000A28088BFE2806469002CEDD1064B094AB5
:100520001B689B1B1B091380074A11888B4288BFDD
:100530001380F8BDFCED00E0041000E0001000E0C6
:100540005891FF1F5E91FF1F5C91FF1F08B5036864
:10055000C9B21B68984708BD08B50368C9B21B68D3
:10056000984708BD08B50368C9B21B68984708BD1D
:1005700008B50368C9B21B68984708BD084608B5A6
:1005800000F0D4FD012008BD084608B500F0CEFDFE
:10059000012008BD38B508460D4600F0DBFA0446D8
:1005A0002146284600F010FE204638BD10B508460A
:1005B0001446114600F008FE204610BD00F0ACBE07
:1005C00000F062BE00F07ABE00F090BE00F068BE9F
:1005D000084600F091BD00F063BD480800F13760A7
:1005E00000F5D830B0FBF1F000F0DEBC480800F1B7
:1005F000376010B500F5D830B0FBF1F0144600F0CC
:10060000D3FC2046BDE8104000F01CBD044B002286
:100610001A711A73034A4FF47A7199601A6070471D
:100620006091FF1F3834000008B50368C9B21B6829
:10063000984708BD08B50368C9B21B68984708BD4C
:1006400008B50368C9B21B68984708BD08B50368B8
:10065000C9B21B68984708BD084608B500F098FF66
:10066000012008BD084608B500F092FF012008BD32
:1006700038B508460D4600F06DFA04462146284676
:1006800000F0CEFF204638BD10B50846144611468E
:1006900000F0C6FF204610BD01F016B800F0CCBF38
:1006A00000F0E4BF00F0FABF00F0D2BF00F044BF9A
:1006B000480800F1376000F5D830B0FBF1F000F0E9
:1006C000C9BE480800F1376010B500F5D830B0FB5E
:1006D000F1F0144600F0BEFE2046BDE8104000F0E8
:1006E000FDBEFFFF044B00221A711A73034A4FF438
:1006F0007A7199601A6070477091FF1F883400000A
:1007000008B50368C9B21B68984708BD08B50368F7
:10071000C9B21B68984708BD08B50368C9B21B6811
:10072000984708BD08B50368C9B21B68984708BD5B
:10073000084608B501F0C8F8012008BD084608B50C
:1007400001F0C2F8012008BD38B508460D4600F09A
:1007500001FA04462146284601F0FEF8204638BD3D
:1007600010B508461446114601F0F6F8204610BDB3
:1007700001F046B901F0FCB801F014B901F02AB952
:1007800001F002B901F074B8480800F1B76000F553
:100790005840B0FBF1F000F0F9BF480800F1B76035
:1007A00010B500F55840B0FBF1F0144600F0EEFF34
:1007B0002046BDE8104001F02DB8FFFF044B002299
:1007C0001A711A73034A4FF47A7199601A6070476C
:1007D0008091FF1FD83400002DE9F0410024074626
:1007E0000D4626463B190A2219792846002300F0B7
:1007F000A9F82B6880462E211B68284698470134AB
:100800004044032C0644EDD12846F9790A220023FE
:1008100000F098F88019BDE8F081FFFF044B054A0D
:100820001A6000221A715A719A71DA71704700BF0A
:100830009091FF1F2835000008B5034B01221A6074
:10084000024B1B68984708BD0C710340A091FF1F25
:1008500008B5034B01221A60024B5B68984708BD3C
:100860001C710340A091FF1F08B5034B01221A60C1
:10087000024B9B68984708BD2C710340A091FF1F55
:1008800008B5034B01221A60024BDB68984708BD8C
:100890003C710340A091FF1F054B01221A60054BDC
:1008A0001A6822F400021A60034B00221A70704783
:1008B000007003403C8004409C91FF1F037B012299
:1008C000591103F01F0302FA03F3084A42F82130DA
:1008D0008268002313604178054A5354D15C21B9E2
:1008E0000133042BFAD1FFF7D7BF704780E100E056
:1008F0009891FF1F037810B504460BB1FFF7DEFF98
:100900000023237010BDF8B506460C468F1800254D
:1009100006E0336814F8011B1B68304698472D1811
:10092000BC42F6D12846F8BD07B5054B1B88ADF88B
:100930000430036801A95B68022298470EBD00BF1E
:1009400030350000F0B505468BB022B90368C9B256
:100950001B6898472CE0012A08BF0A2221B93022DF
:100960008DF82520212413E02124B1FBF2F002FBB5
:100970001011C9B2092901D8303100E037310AAF6E
:100980003E1906F8241C014610B1013CE4B2ECE724
:1009900033B1013C0AAAE4B213192D2203F8242C26
:1009A0002B6801AF5B6828463919C4F122029847C9
:1009B0000BB0F0BD10B50446FFF79CFF204610BDFC
:1009C00003480449044A0023037002F075B800BFCD
:1009D000B091FF1FB50900005089FF1F224B602214
:1009E0001A70E1225A70214B214A1978214B0829AB
:1009F00001D1012102E00A2907D139211160132216
:100A00001A601D4B19605A600BE00C291A4901D17C
:100A1000352000E03D20106012221A60174B08605C
:100A20001A60174B17491B78174A03B101230B6053
:100A30001360164B164A1978164B012901D88021EC
:100A40000CE0042901D8842108E0082901D8852177
:100A500004E0102901D8862100E087211160196087
:100A60000D4B01221A707047004007405489FF1F48
:100A700008B003400CB0034008B00B400CB00B4072
:100A8000C591FF1F20B0034020B00B405589FF1FC8
:100A900024B0034024B00B40C491FF1F08B501F0FF
:100AA00007FF02F001F801F0D5FEFAE7024B1A68E1
:100AB00001321A60704700BF5092FF1F38B50B4CCF
:100AC00025462368580301D501F002F92B68590522
:100AD00001D500F041FC2B681A0501D500F0FEFDA0
:100AE0002368DB04EDD500F095FFEAE7348004408D
:100AF00008B5FFF7E3FFFFFF014B10221A80704794
:100B0000002005407047FFFF024A13681818106064
:100B1000184670475889FF1FEFF313839BB9EFF313
:100B2000108098B9EFF3058323B10F2B04D9084A3D
:100B3000985C01E04FF48070EFF311833BB1984271
:100B400028BF184670474FF0FF307047184670476F
:100B5000F0E300E0002300E00133C256002AFBD19D
:100B60001846704710B50023B0FBF2F402FB1400E6
:100B7000092801D8303000E03730C85420460CB185
:100B80000133F1E7CA185470224605E0885CCC5C5A
:100B90008C54C8540132013B9A42F7DB084610BD21
:100BA000084B4FF400021A604FF080721A604FF049
:100BB00000721A604FF080621A604FF000621A6093
:100BC000704700BF08E100E0114B10B51C68E0045D
:100BD0001C6004D50F4BDA680AB1DB689847A104A2
:100BE00004D50C4B1A690AB11B699847A20604D5B3
:100BF000084B1A6E0AB11B6E9847E30606D5054BE3
:100C0000D3F8842012B1D3F88430984710BD00BFC8
:100C1000A0900440C891FF1F1F4B10B51C68E00353
:100C20001C6004D51D4B1A680AB11B689847A103C4
:100C300004D51A4B5A680AB15B689847E20704D595
:100C4000164B1A6C0AB11B6C9847A30704D5134BBB
:100C50005A6C0AB15B6C9847200704D50F4B9A6C0D
:100C60000AB19B6C9847610704D50C4BDA6C0AB14A
:100C7000DB6C9847220304D5084B5A6E0AB15B6EB1
:100C80009847630306D5054BD3F8802012B1D3F8FB
:100C90008030984710BD00BFA0A00440C891FF1F3E
:100CA0002C4B10B51C6820071C6004D52A4B5A6ACF
:100CB0000AB15B6A9847E10604D5274B9A6A0AB1E4
:100CC0009B6A9847620604D5234BDA6A0AB1DB6A4D
:100CD0009847230604D5204B1A6B0AB11B6B984723
:100CE000A00604D51C4B5A6B0AB15B6B9847E10711
:100CF00004D5194BDA6B0AB1DB6B9847A20704D510
:100D0000154B9A6D0AB19B6D9847630704D5124B3A
:100D1000DA6D0AB1DB6D9847A00504D50E4BDA6E8B
:100D20000AB1DB6E9847E10504D50B4B1A6F0AB187
:100D30001B6F9847620504D5074B5A6F0AB15B6F6A
:100D40009847230504D5044B9A6F0AB19B6F9847C7
:100D500010BD00BFA0B00440C891FF1F1E4B10B5CE
:100D60001C68E0071C6004D51C4B9A680AB19B689C
:100D70009847210604D5194B5A690AB15B6998470F
:100D8000E20604D5154B9A690AB19B699847630737
:100D900004D5124BDA690AB1DB699847200704D5FC
:100DA0000E4B1A6A0AB11B6A9847A10704D50B4B70
:100DB0009A6B0AB19B6B9847A20604D5074B1A6D34
:100DC0000AB11B6D9847630604D5044B5A6D0AB1EE
:100DD0005B6D984710BD00BFA0C00440C891FF1FC5
:100DE000094B10B51C68A2071C6004D5074B9A6E0E
:100DF0000AB19B6E9847E30704D5044BDA6F0AB13A
:100E0000DB6F984710BD00BFA0D00440C891FF1F02
:100E1000044B054900221A600A60044A106010223F
:100E20001A60704714D0034004D0034000D0034040
:100E3000212810B518D80D4A52F8303093F8804266
:100E40003CB1012211B183F8802010BD83F800214C
:100E500010BD02EBC00043681A6811B142F00302F2
:100E600001E022F002021A6010BD00BF94350000BC
:100E7000212805D8034B53F8303093F8000270470F
:100E80000020704794350000212816D80B4A02EB49
:100E9000C00301295B6852F8302004D182F8801227
:100EA0004FF4A27208E0002082F8800211B94FF4DA
:100EB000807201E040F203121A607047943500001E
:100EC00072B60B4B0B491A680B4B1B68096862B66C
:100ED000490102D5322A88BF0133C2F5BB32FF3245
:100EE0006021B2FBF1F24FF47A7000FB03207047EF
:100EF00018E000E004ED00E05092FF1F70B50446DA
:100F0000FFF7DEFF05466CB140F2E736FFF7D8FF8A
:100F1000401BB04203D9013C04D005F57A7501F0BD
:100F200099FCF3E770BDFFFF10B5FFF739FE164BD4
:100F3000164A174C00204BF6FF71186059602823A1
:100F400013609360136193611362936213639363FD
:100F5000092222600F4C20606160A360236144F885
:100F6000042C0D4C20600D4801600D490B608B6016
:100F70000C4B1A60FFF732FD0420FFF7BFFFBDE8FE
:100F8000104001F0E5B900BF048003400C8003402D
:100F9000008003400490034004800B4008800B4015
:100FA0000C800B4000800B401B4B1A6842F480629F
:100FB0001A601A4A00231370194A1370194A1370E1
:100FC000194A1370194A1370194B40F213321A6000
:100FD0004FF451725A60174BC0F344321A70C0F389
:100FE00047125A7000F01F00134A9872022104231E
:100FF00013705174D374114B88221A703C2203F879
:101000000D2C0F4B40226FF44A711A705B184FF48D
:1010100000521A60704700BF34800440D692FF1F10
:101020005592FF1FDC92FF1FD792FF1F5492FF1FA4
:1010300040A0044000A0064002A0064010A00640C8
:101040002DE400E0134A137800F0030103F0EC03F1
:101050000B43410748BF43F01003137000F00F0328
:10106000042B04D10C4B1A7842F040021A700B4A40
:101070001378C10603F0EF0348BF43F01003137069
:10108000054A1378800603F0EF0348BF43F01003CE
:101090001370704702A0064006A0064005A0064057
:1010A0000E4B1B68580510B503D410BD01F0D2FBE0
:1010B00000E00B4C2378002BF8D10A4A4FF4005182
:1010C0001160094A0949137040F203120A604A602C
:1010D000074A1370074A137010BD00BF34800440E4
:1010E0005492FF1F84E100E003A0064040A00440AA
:1010F000D692FF1F5592FF1F38B5094B04461D7845
:10110000002DFCD120460121FFF7BEFE20462946D6
:10111000FFF78EFE034B53F83420034B1A6038BDA3
:101120005492FF1F94350000D892FF1F1D4B1B687F
:101130005A052DE9F041064632D51B4B1B680BB111
:1011400001221A70194B1A4D1C781A4FDFF86C8067
:1011500001343F2C88BF002415E0FFF7DDFC402858
:101160000DDC3B781B060ED52B78134A01333F2B41
:1011700088BF002318F8031011702B7003E0FF28BC
:1011800001DD01F067FB2B78A342E6D00B4B1E5527
:101190000B4B01221A70054B1C700A4BBC221A70B3
:1011A000BDE8F08134800440D892FF1FDC92FF1F1D
:1011B000D792FF1F04A0064007A006405692FF1FCB
:1011C0005492FF1F03A006402DE9F84F254B1B68E2
:1011D00006465805884643D5234B1B680BB10122B0
:1011E0001A70224DB346A94633E0214B1C782F7864
:1011F00001343F2C88BF0024A74209D01BF8012BE3
:101200001C4B1A551C4B01221A70194B1C7020E004
:101210001A4BDFF870A0BC221A70FFF77DFC402843
:101220000FDC9AF8003019060FD52B78114A0133DC
:101230003F2B88BF0023D15C114A117089F8003020
:1012400003E0FF2801DD01F005FB2B78BB42E4D071
:10125000D4E706EB08039B45C7D3084BBC221A70A2
:10126000BDE8F88F34800440D892FF1FD792FF1F4B
:10127000DC92FF1F5692FF1F5492FF1F03A00640EF
:1012800007A0064004A0064010B5044C01E001F0A0
:10129000E1FA2378002BFAD110BD00BF5492FF1F52
:1012A000044B1878044B1B78984238BF4030C01A62
:1012B000704700BFD692FF1F5592FF1F084B094A87
:1012C00019781378994207D001333F2B88BF002348
:1012D0000549C85C137070474FF0FF30704700BF7E
:1012E000D692FF1F5592FF1F9692FF1F074B1A7849
:1012F000074B1B789A4206D001333F2B88BF00234F
:10130000044AD05C70474FF0FF307047D692FF1F01
:101310005592FF1F9692FF1F0A4B1B685B050FD566
:10132000094B1A7802F0CB021A70084A402111705A
:101330001A7842F034021A70054B1A78054B1A706D
:10134000704700BF3480044003A0064011A006404F
:101350005592FF1FD692FF1FF0B5304B1B7813F04C
:10136000300F20D072B62E4B197831B90F3B402286
:101370001B782C4B1A7062B615E062B62A4B2B4CC8
:101380001A782B4B2B4D1878531C3F2B88BF00230A
:10139000267883421CBFEE541A46013911F0FF0132
:1013A000F2D1214B1A70244B1B7819465BB2002BEB
:1013B0001FDA1A4A137818061BD5204B204E1F78C7
:1013C000204B1A4D1B78204CBB4209D001333F2BD8
:1013D00088BF00231078F05C287020780728F3D9A4
:1013E000184A13700D4B1B781A0602D5124B7C223B
:1013F0001A7001F04003DBB27BB1084B1B7803F09D
:101400004003DBB24BB1114B00221A70104B1B682A
:1014100003B11A70084B3C221A70F0BD04A00640BC
:1014200016A0064011A00640D692FF1F07A0064056
:101430005592FF1F9692FF1F03A00640DC92FF1FEC
:101440005692FF1FD792FF1F14A006405492FF1F11
:10145000D892FF1F164B1A6842F400621A60154AB0
:1014600000231370144A1370144A1370144A137033
:10147000144A1370144A40F2133111604FF4517141
:101480005160124AC0F344311170C0F3471100F0AB
:101490001F0051709072937013740D4B2C221A70B0
:1014A0000C4B40221A700C4B4FF400421A607047EC
:1014B000348004404793FF1FDE92FF1F4993FF1FB4
:1014C0004893FF1FDD92FF1F0CB0044000B00640A0
:1014D00003B006402FE400E004E100E0134A137873
:1014E00000F0030103F0EC030B43410748BF43F056
:1014F0001003137000F00F03042B04D10C4B1A7867
:1015000042F040021A700B4A1378C10603F0EF0351
:1015100048BF43F010031370054A1378810603F0A7
:10152000EF0348BF43F010031370704702B006404A
:1015300006B0064005B006400E4B1B68180510B5F6
:1015400003D410BD01F086F900E00B4C2378002B8A
:10155000F8D10A4A4FF400411160094A0949137051
:1015600040F203120A604A60074A1370074A137078
:1015700010BD00BF34800440DD92FF1F84E100E015
:1015800003B006400CB004404793FF1FDE92FF1FDC
:101590001B4B1B681A052DE9F04106462DD5194B4A
:1015A000194D1C78194FDFF86C800134272C88BF47
:1015B000002415E0FFF7B0FA40280DDC3B781B064D
:1015C0000ED52B78124A0133272B88BF002318F839
:1015D000031011702B7003E0FF2801DD01F03AF9D0
:1015E0002B78A342E6D00B4B1E550B4B01221A70F1
:1015F000044B1C70094BAC221A70BDE8F08100BF8F
:10160000348004404993FF1F4893FF1F04B00640F5
:1016100007B00640DF92FF1FDD92FF1F03B00640B8
:1016200038B54518044603E014F8010BFFF7B0FF86
:10163000AC42F9D138BDFFFF10B5044C01E001F018
:1016400009F92378002BFAD110BD00BFDD92FF1FEE
:10165000044B1878044B1B78984238BF4030C01AAE
:10166000704700BF4793FF1FDE92FF1F084B094AD8
:1016700019781378994207D001333F2B88BF002394
:101680000549C85C137070474FF0FF30704700BFCA
:101690004793FF1FDE92FF1F0793FF1F074B1A7828
:1016A000074B1B789A4206D001333F2B88BF00239B
:1016B000044AD05C70474FF0FF3070474793FF1FDC
:1016C000DE92FF1F0793FF1F024B1A78024B1A701E
:1016D000704700BFDE92FF1F4793FF1F10B5214BDD
:1016E0001B7803F02003DBB273B11F4B1F4A18783D
:1016F0001F491378097801333F2B88BF00238B42A1
:1017000002D01C49C85413701B490B7818465BB2B1
:10171000002B15DA134B1B781B0611D5174B184AF3
:101720001C7813789C4202D16C230B7008E00133C3
:10173000272B88BF00231349CC5C0B490C70137016
:1017400000F04003DBB25BB1064B1B7803F04003B3
:10175000DBB22BB10C4B00221A70074B2C221A70F3
:1017600010BD00BF04B0064007B006404793FF1FFE
:10177000DE92FF1F0793FF1F03B006404993FF1F30
:101780004893FF1FDF92FF1FDD92FF1F174B1A6860
:1017900042F480521A60164A00231370154A1370DF
:1017A000154A1370154A1370154A1370154A40F202
:1017B000133111604FF451715160134AC0F3443139
:1017C0001170C0F3471100F01F00517090729370B8
:1017D00013740E4B2C221A700D4B40226FF44B7178
:1017E0001A705B184FF400321A607047348004405E
:1017F000B493FF1F4B93FF1FB693FF1FB593FF1FBB
:101800004A93FF1F08C0044000C0064003C00640C2
:1018100031E400E0134A137800F0030103F0EC0315
:101820000B43410748BF43F01003137000F00F0350
:10183000042B04D10C4B1A7842F040021A700B4A68
:101840001378C10603F0EF0348BF43F01003137091
:10185000054A1378800603F0EF0348BF43F01003F6
:101860001370704702C0064006C0064005C006401F
:101870000E4B1B68D80410B503D410BD00F0EAFF6E
:1018800000E00B4C2378002BF8D10A4A4FF40031CA
:101890001160094A0949137040F203120A604A6054
:1018A000074A1370074A137010BD00BF348004400C
:1018B0004A93FF1F84E100E003C0064008C00440D3
:1018C000B493FF1F4B93FF1F1B4B1B68DA042DE9DA
:1018D000F04106462DD5194B194D1C78194FDFF8EC
:1018E0006C800134272C88BF002415E0FFF714F921
:1018F00040280DDC3B781B060ED52B78124A0133AD
:10190000272B88BF002318F8031011702B7003E0F9
:10191000FF2801DD00F09EFF2B78A342E6D00B4BA1
:101920001E550B4B01221A70044B1C70094BAC2244
:101930001A70BDE8F08100BF34800440B693FF1FE9
:10194000B593FF1F04C0064007C006404C93FF1F1D
:101950004A93FF1F03C0064038B54518044603E00C
:1019600014F8010BFFF7B0FFAC42F9D138BDFFFF0F
:1019700010B5044C01E000F06DFF2378002BFAD184
:1019800010BD00BF4A93FF1F044B1878044B1B780F
:10199000984238BF4030C01A704700BFB493FF1F51
:1019A0004B93FF1F084B094A19781378994207D0C7
:1019B00001333F2B88BF00230549C85C1370704773
:1019C0004FF0FF30704700BFB493FF1F4B93FF1FD2
:1019D0007493FF1F074B1A78074B1B789A4206D067
:1019E00001333F2B88BF0023044AD05C70474FF07F
:1019F000FF307047B493FF1F4B93FF1F7493FF1F7B
:101A0000024B1A78024B1A70704700BF4B93FF1FAE
:101A1000B493FF1F10B5214B1B7803F02003DBB2FA
:101A200073B11F4B1F4A18781F4913780978013387
:101A30003F2B88BF00238B4202D01C49C85413702F
:101A40001B490B7818465BB2002B15DA134B1B7839
:101A50001B0611D5174B184A1C7813789C4202D1EB
:101A60006C230B7008E00133272B88BF0023134938
:101A7000CC5C0B490C70137000F04003DBB25BB11F
:101A8000064B1B7803F04003DBB22BB10C4B00225A
:101A90001A70074B2C221A7010BD00BF04C00640FC
:101AA00007C00640B493FF1F4B93FF1F7493FF1FA3
:101AB00003C00640B693FF1FB593FF1F4C93FF1F53
:101AC0004A93FF1F1FB572B6154B70221A70154A44
:101AD000412111700F2102F8011C80221A701A781E
:101AE0001206FCD5104B186862B6104B984201D80C
:101AF0000A23584301A90A22FFF734F80C480023AF
:101B000001AA9A5C32B100EB4301013352B20A2BB5
:101B10004A80F5D10133064A5B00137005B000BD61
:101B20000000024007000240080002407F96980033
:101B30004E8BFF1FF0B50C4B0C4C1A7842F002058F
:101B400004EBC50682F00102706009481A7006783D
:101B5000002E0CBF8827C82747EA014186F00106FE
:101B600044F835100670F0BD3494FF1F0080FF1F4D
:101B7000BC94FF1F431E052B10B510D872B6094A3E
:101B800052F8230048B1416842F82310064A018800
:101B900032F81340611A22F8131062B610BD00200B
:101BA00010BD00BF1C94FF1F3C95FF1F0138052886
:101BB0000BD872B6064B53F82030002001E05B686A
:101BC0000130002BFBD162B670470020704700BF88
:101BD0007894FF1F70B572B6184E194C01239A19EC
:101BE00012F8012C02F00802D2B2E2B19900144AB4
:101BF00054F831502DB902EB431308305860114BA3
:101C000009E041F0010154F8315065B902EBC1031C
:101C1000083058600C4B42F831300C4B1A78013ABE
:101C20001A7062B670BD0133072BD8D162B6074B6C
:101C300000221A70BDE8704000F0D6BCA436000047
:101C40000080FF1F88004000C8004000B294FF1FC2
:101C5000431E052B30B532D84001194A40F0100020
:101C6000101872B6174CE25C032A09D8DFE802F0BC
:101C7000160218050830022213E00830042210E092
:101C80001148124A50F8234014B940F8231002E0DA
:101C900052F82300416042F823100FE0032200E0D5
:101CA0000522E25410F0080F01F108030A8843608E
:101CB0000CBF8823C82343EA0243036062B630BDE9
:101CC0000080FF1FD493FF1F7894FF1F9094FF1F85
:101CD0002DE9F74FA74EA84C357805F00403DBB289
:101CE000ABB1A64B1B7883B1A54A137823B1013B56
:101CF000DBB2137003B900BEA24A13782BB1013BCB
:101D0000DBB213700BB900F083FD0423337005F0D0
:101D10000802D2B2002A00F0C7829B4B1B781D0933
:101D20004FEA930940F01A8204EBC9035D6854F846
:101D30003930C3F38303013B0C2B00F20C82DFE844
:101D400013F0B401B4010A020A020A020A020A02EA
:101D50000A02E1010A020A020A020D006B688B49BD
:101D60008B484B608B4B2A6844F839308A4D0A60A7
:101D7000002303600120287092B240F28165AA42DC
:101D80002361A36119D8B2F5D06F80F03781B2F525
:101D9000817F00F0E78006D8802A00F0CD80822A7B
:101DA00040F04881CCE040F202339A4200F01781C3
:101DB000B2F5A06F40F03E8140E140F62125AA42F5
:101DC00000F03C810CD8B2F5106F19D040F6211309
:101DD0009A4200F06781B2F5086F40F02B81A5E0D0
:101DE00042F22120824200F0218142F221339A42C4
:101DF00000F02481A3F540739A4240F01B8151E129
:101E00008A785E4B5C4D1A702B6A180603D5686A97
:101E1000083800F0E9FB614908358D42F4D1DFF85C
:101E2000A491DFF8A4B10025A846CA4655F80900D8
:101E300005E04368009300F0D7FB009B184600289C
:101E4000F7D1574B4AF8050045F80B00E85807E072
:101E500042680093019200F0C7FB019A009B104674
:101E60000028F5D158514F4BE8504F4B23F818003C
:101E70004E4B18F80320023A032A08D8DFE802F094
:101E800002040204002200E0012203F8082008F105
:101E900001080435B8F1060FC8D1454BDFF82C9185
:101EA00000221A7001259846424B05EB0902EB18F7
:101EB00012F8012C9B001A7002F00802D2B23AB359
:101EC00000F074FBAB0038B104EB451208305060F1
:101ED000394A44F8332006E044F8330098F80030DB
:101EE000013388F8003000F061FBAB0043F00103E0
:101EF00038B104EBC30208305060264A44F833205E
:101F000006E044F8330098F80030013388F80030D8
:101F1000AA0042F00201013542F003020023072D1E
:101F200044F8313044F83230BED188E0134B234DB1
:101F30001B782B70034685E0204D2B706B7080E082
:101F40008A88062A00D975E01C4D2B706B701C4BDB
:101F50009200D3181B7803F00203DBB2002B70D081
:101F600028706EE08A8802F07F03062B62DC4B88C3
:101F700073B35FE0802007400080FF1FBB94FF1F0A
:101F80003594FF1FE994FF1F90200740A894FF1F7E
:101F9000B893FF1FC8004000BC94FF1FC080FF1F04
:101FA0007894FF1F9094FF1F3C95FF1FD493FF1F51
:101FB000B294FF1F30C8011088004000B394FF1F87
:101FC000C02007401C94FF1FBC93FF1FA4360000D5
:101FD0009100A04A8A18117821F0020128E08A882D
:101FE00002F07F03062B25DC4B8803B122E0910031
:101FF000984A8A18117841F0020119E04A88964BF4
:10200000898853F8085CA3F10C009DB133F80CCC1F
:10201000944509D133F80ACC8C4505D1120A032A1C
:102020000CBF2B7803890DE00C33EAE789788B4AE3
:10203000117004E0874B0F221A7033E000231D4615
:1020400000E00223864AB2F806904B4538BF994615
:10205000B9F1400F34BFC8464FF04008284641460A
:10206000FFF768FDB9EB0809454403D1B8F1400F0B
:1020700007D017E0B9F1400F34BFC8464FF0400811
:1020800000E0C84628464146FFF754FDB9EB080971
:10209000454402D1B8F1400F04D1724B724A1D6021
:1020A000A2F800900122714B54E06D4B1A8842F265
:1020B00021039A4212D16E4A0023E95C99540133FC
:1020C000072BFAD16A4B1B680735862B02D1694B67
:1020D0000F221A7000200146FFF72CFD604B664965
:1020E0001A688A420AD15A68644B9A4206D12A7801
:1020F000634B002001461A70FFF71CFD614B44F84A
:10210000393028E0574BD3F80080B8F1000F18D0D1
:10211000DFF85491B9F800A0BAF1400F34BF55462A
:10212000402540462946FFF705FDC5EB0A039BB253
:10213000A9F800300BB9402D01D108EB0503494A3D
:102140001360474B1A88B2F5A06F04D100225A7071
:102150009A784D4B1A700122444B6DE004EBC9088C
:1021600003F00803D8F80420013DD9B2A2F1080019
:10217000EDB2002937D000F037FA4448444B50F80C
:102180002510F1B14A6840F8252001F10802C8F88D
:1021900004205A5D032A0BD8DFE802F00204060887
:1021A000032204E0022202E0052200E004225A5544
:1021B00018F0080F0A880CBF8823C82343EA02439B
:1021C00042E05A5D032A07D8DFE802F040400204EB
:1021D000002206E0012204E018F0080F0CBF0222E2
:1021E00003225A5532E054F839301B0C22F8083CCF
:1021F00023B322F8061C42F8041C264A264952F84A
:10220000257017B942F8250002E051F825205060EA
:10221000224A41F8250032F815105B1822F81530D3
:1022200000F0C4F918B10830C8F8040006E01C4BEF
:1022300044F839001A7801321A7007E0114B194A34
:1022400018F0080F08BF134644F8393008233370DC
:1022500042E500BFC0200740B8360000F894FF1FD9
:10226000A894FF1FB893FF1FB094FF1F942007404E
:102270004895FF1F3594FF1F21090002020001004D
:10228000E894FF1FC8004000982007407894FF1F83
:10229000D493FF1F1C94FF1FBC93FF1F3C95FF1F8F
:1022A000B294FF1F88004000E9071FD51D491E4852
:1022B0001E4C02230B701E4B1A701E4B1860986048
:1022C0001D481A61D8609A615C601C4B0D20187023
:1022D0001B48FF23037000F8083C0274194A13706E
:1022E000194B9F221A7001230B7018E02B0605D59D
:1022F000124B0D221A70802203F8402C05F00203C5
:10230000DBB22BB10E4B1A781A70022203F8082C9C
:1023100005F01005EDB215B10C4B10221A70BDE896
:10232000FE8F00BF9420074088004000DC93FF1F11
:102330003494FF1F0080FF1F3894FF1FC020074008
:10234000882007408C2007408420074080200740D9
:1023500008B5FFF7B7FB00231E491A465A50C818A4
:102360000833C82B4260F9D11B4B1A6842F4802213
:102370001A601A4B80221A701978184A0906FBD481
:10238000144B1749C3F307200870C3F307401B0E13
:1023900008750B76FF2301F81C3C01F8143C01F88A
:1023A0008C3C137843F0400313700021012302F8A2
:1023B000783C02F80C1C02F8883C0A4B70226FF43F
:1023C000507C1A7063444FF400721A60064B10225E
:1023D0001A7008BD0080FF1F348004400C210740A4
:1023E0009C20074049E400E008210740084608B562
:1023F00000F0A8F8012008BD0846114600F06AB9AF
:10240000084600F0CFB900F0D7B900F037B900F0B6
:102410000DB900F051B9FFFF064B4FF47A71996086
:10242000054900221A711A731960044B1A71044A83
:102430001A607047C894FF1F60370000C094FF1FE8
:10244000503700001F2808D80A2804D00B280CBFDA
:102450002B2000207047282070477F2804D8034B8A
:10246000181810F8200C7047002070473235000013
:1024700070B5194D194E47F269442B784BB30120C2
:10248000FFF794FB032802D9013C06D107E000F0D6
:102490008DF801460028F7D008E033781BB10F4BC8
:1024A00001221A7015E000F0D5F9E6E70C4B1B7815
:1024B00003720C4B1B7843720B4B1A689B88C0F855
:1024C0000A20C381082303800120FFF7C1FB0020FD
:1024D00070BD4FF0FF3070BDBB94FF1FE294FF1F33
:1024E000E094FF1FE194FF1FDA94FF1F38B50A4CF8
:1024F0000A4D2070002329706370A370E37023716C
:102500006371FFF7B5FF28B928702070BDE8384027
:10251000FFF7AEBF38BD00BFDA94FF1FE094FF1F86
:1025200008B5FFF78FFF60B100F04001C9B200F0BD
:102530003F00002914BF02210021BDE80840FFF739
:10254000D5BF08BD10F0800F164B02D100221A60D3
:102550000BE0BF2812D81968012900F03F0206D10C
:1025600000211960104B18881043FFF7D9BF0229CA
:1025700016D10D49088840EA821205E0DF2806D806
:1025800000F01F02084992010A80012207E0EF28AB
:1025900004D8054902030A80022200E0FF221A60E3
:1025A000704700BFE494FF1FD894FF1F72B60C4A17
:1025B0001168B1FA81F31D2B02D962B60020704771
:1025C0004FF0004020FA03F021EA0001116062B6EA
:1025D000044948225343C8180022CA504260704739
:1025E000648BFF1FE080FF1F0C4B4822C31AB3FB14
:1025F000F2F31D2B11D80A4A127822B1094A127837
:102600000AB1FFF7E7BA72B6074A4FF0004121FA64
:1026100003F311681943116062B67047E080FF1F31
:10262000B294FF1FBB94FF1F648BFF1F38B5114C82
:1026300023684BB10F4D28684288811801320C7A0B
:1026400001888A4212D30CE00B4B1B7813B94FF070
:10265000FF340CE00320FFF78DFA20600028E9D159
:10266000F5E7FFF7C1FF00232B6000E04280204622
:1026700038BD00BFF494FF1FBB94FF1F10B50C4C76
:1026800023681BB10A4B1B686BB902E0094B1B782E
:1026900013B94FF0FF3010BD0320FFF76BFA206035
:1026A0000028EFD1F5E75A889B18187A10BD00BFB3
:1026B000F494FF1FBB94FF1F044B9888044B1B68C6
:1026C0001BB11A885B88D31AC01870473C95FF1F4E
:1026D000F494FF1F2DE9F8432D4B2E4DDFF8C080F9
:1026E00001220C461A7006464BE02B682BBBDFF824
:1026F000A0904AF2F92798F8003013B9244A1370D1
:1027000014E00420FFF752FA072808D8012389F8BB
:102710000030FFF74BFF286078B989F80000013FCF
:102720001D4B01D01A782AB101221A704FF0FF30E8
:10273000BDE8F88300F08EF8DDE72968164A48887E
:1027400000231370C0F14002944238BF224600F1CA
:1027500008078018CF194880A41A02E0F05CF854EA
:1027600001339342FAD1F6184B883F2B06D9402308
:102770000B800420FFF76CFA00232B60074B052227
:102780001A70002CB1D1024B20461C70BDE8F883B2
:10279000EA94FF1FEC94FF1FF094FF1FE994FF1FC2
:1027A000BB94FF1F07B502AB012103F8010D1846CA
:1027B000FFF790FF0EBDFFFFF8B5114B1B78EBB193
:1027C000104E114B3468114D01271F704CB16388B6
:1027D00000272F70042023802146FFF739FA376045
:1027E00009E0FFF7E3FE014620B104202C70FFF75B
:1027F0002FFA00E02F70044B00221A70F8BD00BFC2
:10280000BB94FF1FEC94FF1FEA94FF1FE994FF1F86
:1028100038B50D4B1D78ADB90C4C216831B14B88E2
:1028200004200B80FFF714FA256038BDFFF7BEFEC9
:10283000014620B10420BDE83840FFF709BA044B37
:1028400001221A7038BD00BFEA94FF1FEC94FF1FED
:10285000E994FF1F704708B50368C9B21B68984721
:1028600008BD38B5044608460D46FEF773F92368DF
:10287000024629465B682046984705462046FEF7F3
:1028800053F8281838BDFFFF00230649184658544E
:10289000013300220C2BFAD1034B1A70034B1A7030
:1028A000704700BFFB94FF1F348CFF1FFA94FF1F7B
:1028B00008B50F200221FEF7E7FA0E200221FEF7ED
:1028C000E3FA0C200221FEF7DFFA0B200221FEF7CB
:1028D000DBFA0A200221FEF7D7FA09200221FEF7CF
:1028E000D3FA08200221FEF7CFFA07200221FEF7D3
:1028F000CBFA06200221FEF7C7FA05200221FEF7D7
:10290000C3FA02210420FEF7BFFA03200221FEF7DA
:10291000BBFABDE80840FFF7B7BFFFFF10B50023C3
:102920000D4C1A46185DC3F10B0100FA01F1013399
:102930000A430C2B92B2F5D10849002331F8130059
:10294000904202D1064AD05C03E00133402BF5D11E
:10295000002040B210BD00BFFB94FF1FA88BFF1FDB
:10296000688BFF1F70B5084E084D0024305DFEF7E0
:102970007FFA635D002814BF184643F001006055DC
:1029800001340C2CF2D170BD288CFF1FFB94FF1F6B
:1029900070B5084E00240125305DFEF769FA013458
:1029A000002814BF002505F001050C2CF4D12846A1
:1029B00070BD00BF288CFF1F70B50024074E254650
:1029C000305DFEF755FA0134002808BF45F00105D7
:1029D0000C2CF5D185F00100C0B270BD288CFF1F12
:1029E00008B505490548FFF73CFF054B01221A7061
:1029F000BDE80840FFF748BF78370000C894FF1FC4
:102A0000F994FF1F10B5074C2046FDF78DFF0649CE
:102A10002046FFF726FF0548FDF786FF044B0022FE
:102A20001A7010BDC894FF1F86370000C094FF1FA6
:102A3000F994FF1F10B5FFF771FF044621460548C2
:102A4000FFF709FF21460448FFF705FFBDE81040E6
:102A5000FFF71ABFC894FF1FC094FF1F10B5FFF700
:102A600097FF30B10D4B1A781C4682B9FFF7CAFFA9
:102A70000DE0FFF7A1FF0A4C60B10A4B1B7813B9B8
:102A8000FFF7AEFF03E023780BB9FFF7D3FF012375
:102A9000237010BD014B2070187010BD348CFF1FC7
:102AA000FA94FF1FF994FF1F08B5FFF75BFFBDE81D
:102AB0000840FFF7D3BFFFFF03460846194600F062
:102AC00001B800BF30B405460C4613460220294623
:102AD000224630BC00F020BB70B543F60C0643F62E
:102AE0000C05C0F20006C0F20005761BB61007D038
:102AF000043D002455F8043F01349847A642F9D11B
:102B000043F6280643F60C05C0F20006C0F20005A5
:102B1000761B00F075FEB61008D0043D002455F871
:102B2000043F01349847A642F9D170BD70BD00BF83
:102B300048F638430146C1F6FF73186800F008B83C
:102B400048F638430146C1F6FF73186800F0A6BB8B
:102B50002DE9F04F01F10B04162C83B0074630D954
:102B600024F00704E30F8C422CBF194643F0010107
:102B700000292FD1384600F0B7FAB4F5FC7F2ED2E9
:102B80004FEAD40C48F62C56C1F6FF7606EBCC0281
:102B9000D368934200F01182596803F10808DA689B
:102BA000384621F0030499681B195C68CA6044F038
:102BB000010491605C6000F099FA404603B0BDE802
:102BC000F08F002310248C422CBF194643F00101E2
:102BD0000029CFD00C234FF000083B60EDE75FEAFF
:102BE000542C04BF4FEAD40C4FEA4C0540F08F80C0
:102BF00048F62C56C1F6FF7606EB8505EB689D423C
:102C000006D10DE0002A80F25581DB689D4207D095
:102C1000596821F003010A1B0F2AF3DD0CF1FF3C78
:102C20000CF1010C48F62C523369C1F6FF7202F127
:102C3000080E734508BFD2F8049022D0586820F0DF
:102C40000300011B0F2900F384810029C2F814E05E
:102C5000C2F810E066DAB0F5007F80F04E81C1085E
:102C60004FF0010802EBC100891008FA01F8516821
:102C70008568D86048EA0109C2F804909D60EB605D
:102C8000836001224FEAAC0302FA03F34B4554D8A8
:102C900019EA030F0DD193402CF0030C19EA030F2E
:102CA0000CF1040C05D15B000CF1040C19EA030FC4
:102CB000F9D006EBCC09E0464846C268904207D1FD
:102CC0005BE1002980F28381D268904200F0558157
:102CD000556825F00305291B0F29F2DD90461319CD
:102CE000D56844F0010058F8084F41F0010C5060DD
:102CF0003846C3F804C0E560AC6073613361C3F863
:102D00000CE0C3F808E0595000F0F0F955E7BCF1C9
:102D1000040F00F2DE804FEA941C0CF1380C4FEAED
:102D20004C0565E71A1803F108083846536843F064
:102D30000103536000F0DAF93FE7B5686B6823F0F0
:102D4000030A544504D8C4EB0A030F2B00F3A480F4
:102D500049F20859D6F80814C1F6FF7905EB0A02C2
:102D60000131D9F80030234408BF03F1100B06D01D
:102D700003F580530F3323F47F6323F00F0B3846A2
:102D80005946019200F0B4F9019A411C804600F0C6
:102D90006881824200F23181D9F8043042455B44B7
:102DA000C9F8043000F06681D6F8081448F62C50B3
:102DB000C1F6FF70013117BFC2EB0802C0F80884EA
:102DC0009B18C9F8043018F0070338461FBFC3F139
:102DD0000802C3F58053904403F1080208EB0B038B
:102DE00008BF4FF480521B051B0DC3EB020B594665
:102DF00000F07EF9431C00F04981C8EB0001594402
:102E000041F00101D9F80430B54249F20852C6F840
:102E100008805B44C1F6FF72C8F80410C9F804309A
:102E200018D0BAF10F0F40F20B81AAF10C006968BB
:102E300020F007004FF0050C05EB000E0F2801F005
:102E4000010140EA01016960CEF804C0CEF808C073
:102E500000F2208149F20852D9F82C10C1F6FF7215
:102E6000B5688B42D9F8301088BFD36249F2085256
:102E7000C1F6FF728B4288BF13636A6822F00302B7
:102E80009442C4EB020301D80F2B05DC38464FF007
:102E9000000800F02BF990E62A1943F0010344F0F2
:102EA000010438466C6005F108085360B26000F018
:102EB0001DF982E65918DA689C6838464D6803F1B6
:102EC000080845F00105E26094604D6000F00EF9DD
:102ED00073E6BCF1140F9CBF0CF15B0C4FEA4C0580
:102EE0007FF686AEBCF1540F00F293804FEA143C9B
:102EF0000CF16E0C4FEA4C057AE6420A042A75D9A9
:102F0000142A9CBF02F15B094FEA490508D9542AEB
:102F100000F2C9804FEA103909F16E094FEA4905FC
:102F200006EB850548F62C58C1F6FF78AA68AA4238
:102F300079D0516821F00301884202D2926895420B
:102F4000F7D1D068D6F80490D8609A60D3608360D7
:102F500097E61D1941F00106556144F00104156121
:102F600038465C6003F10808C5F80CE0C5F808E0D5
:102F70006E60695000F0BAF81FE608F101080830E9
:102F800018F0030F7FF499AE4A461CF0030FA2F12C
:102F900008010CF1FF3C00F09E8012688A42F4D0D8
:102FA00072685B0093423FF6C8AE002B3FF4C5AE9B
:102FB0001A4200F09580C4467BE603F108025B6983
:102FC0009A4208BF0CF1020C3FF42CAEE4E59046A7
:102FD0005519D368384658F8082F6968D36041F00E
:102FE00001019A60696000F081F8E6E54FEA901906
:102FF00009F138094FEA490592E7B54248F62C53E2
:10300000C1F6FF733FF4C8AE9D686A6822F0030200
:1030100036E7BCF5AA7F19D84FEAD43C0CF1770CFF
:103020004FEA4C05E4E50125D8F804104FEAA90958
:10303000104605FA09F545EA0109C8F8049083E746
:1030400001234546C8F80430002219E740F25453E2
:103050009C450BD84FEA944C0CF17C0C4FEA4C0584
:10306000C6E5B5686A6822F0030209E7FC254FF05F
:103070007E0CBDE51105090D00297FF495AEB268FF
:103080000BEB0A0141F001015160E3E601214FF031
:10309000000BB7E6384605F10801019200F0FEF892
:1030A000019A5368D6E6B2F5AA7F06D84FEAD0391E
:1030B00009F177094FEA490532E740F25451FC25FE
:1030C0008A424FF07E099EBF4FEA904909F17C0980
:1030D0004FEA490524E7726822EA0302726060E75A
:1030E0005B0008F1040863E7704700BF704700BF4A
:1030F00038B549F25054C1F6FF740546084600231E
:103100002360FDF701FD431C00D038BD2368002B70
:10311000FBD02B6038BD00BF2DE9F04143F298741D
:10312000C0F2000484B007462568AC6C002C42D085
:1031300066681F2E1ADD42F63134C0F2000424B94D
:103140004FF0FF3004B0BDE8F0818C200391029273
:103150000193FFF7EDFC0399029A019B04460028B6
:10316000EED0A86C002684E84100AC64DFB1D4F84E
:10317000886026B3D6F8008165680120022F05F12A
:10318000200C00FA05F046F8252048EA000246F82F
:103190002C3008BFD6F80431C6F8002104BF18430C
:1031A000C6F8040100E06568AB1C002001356560CD
:1031B00044F82310C6E705F14C04AC64B8E742F6C6
:1031C0003130C0F200000028BAD04FF4847003916F
:1031D00002920193FFF7ACFC0399029A019B064609
:1031E0000028ADD00020C6F80001C6F804018046D2
:1031F000C4F88860C0E700BFF8B548F62C54C1F6A3
:10320000FF740F460546FFF76FFFA3685E6826F060
:10321000030606F6EF73DF1B3F0B013F3F03B7F5D5
:10322000805F07DB00212846FFF762FFA3689B1938
:10323000984204D02846FFF759FF0020F8BD794294
:103240002846FFF755FF013010D049F20C53A16812
:10325000C1F6FF73F61B284646F001061A684E6059
:10326000D71B1F60FFF742FF0120F8BD0021284651
:10327000FFF73EFFA368C21A0F2ADBDD49F23414C0
:1032800049F20C51C1F6FF74C1F6FF7142F0010220
:103290005A602368C01A0860CCE700BF2DE9F041EE
:1032A0000E46804600295CD0FFF71EFF48F62C55DD
:1032B00056F8041CC1F6FF75A6F1080421F00103BD
:1032C000AF68E2189742506820F0030067D011F011
:1032D0000101506035D000211618766816F0010FF4
:1032E00006D11B18906800294DD0D268C26090604A
:1032F00043F00102E3506260F1B9B3F5007F32D3CD
:103300005A0A042A6CD898093830410005EB810527
:1033100048F62C51C1F6FF71AA68AA426BD05168D9
:1033200021F003018B4202D292689542F7D1D36813
:10333000E360A260D4609C604046BDE8F041FFF7C6
:10334000D5BE56F8086C05F1080CA41B9B19A6689D
:10335000664543D0D4F80CC0C6F80CC0CCF8086061
:10336000BAE7BDE8F081DB080121686805EBC3021C
:103370009B1001FA03F3E260916818436860A16052
:10338000CC609460D8E7294EB042AED16C6143F076
:1033900001022C61E060A0606260E350CCE7C018DD
:1033A000CB0707D456F8083CE41AC018A268E368B3
:1033B000D3609A6049F2381240F00103C1F6FF72FF
:1033C0006360AC6013689842B6D349F20853404634
:1033D000C1F6FF731968FFF70FFFADE701217BE727
:1033E00002F15B004100142A90D9542A0CD8180B22
:1033F0006E3041008AE701264D688010134606FAB8
:1034000000F005434D6093E7B2F5AA7F03D8D80BCF
:10341000773041007AE740F254518A4203D8980C41
:103420007C30410072E7FC217E206FE7348DFF1F66
:10343000000000000000000089050000AD0500004C
:10344000CD050000C5050000C9050000C10500004C
:10345000DB050000ED050000D7050000D1050000E8
:10346000BD0500004D050000590500006505000080
:1034700071050000950500007D05000000000000BA
:103480000000000000000000650600008906000042
:10349000A9060000A1060000A50600009D06000088
:1034A000B1060000C3060000AD060000D105000013
:1034B00099060000290600003506000041060000BC
:1034C0004D060000710600005906000000000000D3
:1034D00000000000000000003D0700006107000040
:1034E00081070000790700007D07000075070000D4
:1034F000890700009B07000085070000D105000038
:1035000071070000010700000D0700001907000007
:1035100025070000490700003107000000000000F7
:103520000000000000000000D907000000000000BB
:103530000D0A2C5E7460616264346667656E362DB8
:103540003738271E1F202122232425267333762E69
:1035500077785F4445464748494A4B4C4D4E4F505B
:103560005152535455565758595A5B5C5D2F313060
:10357000636D350405060708090A0B0C0D0E0F10C4
:103580001112131415161718191A1B1C1D6F7170C0
:10359000752AFFFF4008FE4340A004404408FE4354
:1035A00044A004400018FE4300C004403000FE4325
:1035B000309004403400FE43349004401C18FE4315
:1035C0001CC004401018FE4310C004400818FE43FD
:1035D00008C004400C18FE430CC004400C10FE430D
:1035E0000CB004401010FE4310B004401810FE430D
:1035F00018B004401C10FE431CB004401410FE43DD
:1036000014B004400418FE4304C004400010FE43FC
:1036100000B004400008FE4300A004400408FE433C
:1036200004A004400C08FE430CA004400808FE431C
:1036300008A004401418FE4314C004401818FE43A8
:1036400018C004400410FE4304B004400810FE43B8
:1036500008B004401400FE43149004404C08FE439C
:103660004CA004400420FE4304D004402410FE4338
:1036700024B004402010FE4320B004402810FE4334
:1036800028B004402C10FE432CB004400020FE4320
:1036900000D004404808FE4348A004401000FE4308
:1036A00010900440151519151515FFFF00010000B5
:1036B000A189FF1F1200000000020000CC89FF1F3B
:1036C0009600000000220200628AFF1F55000000E1
:1036D00000210200208AFF1F0900000000220300D1
:1036E0005C89FF1F4500000000210300398AFF1F8D
:1036F0000900000000220400B78AFF1F55000000E7
:1037000000210400528AFF1F09000000000300008E
:103710004A8BFF1F0000000001030904B489FF1F4A
:1037200000000000020309040C8BFF1F00000000D2
:10373000030309044E8BFF1F00000000000000007F
:103740000000000000000000000000000000000079
:10375000ED23000007090000000000000000000049
:1037600001240000F9230000132400000F240000AE
:103770000B2400000724000043617264207374610D
:10378000727465642100436172642066696E6973B6
:103790006865642100FFFFFF3C8CFF1F43000000B1
:1037A0000000000000000000000000000000000019
:1037B0000000000000000000000000000000000009
:1037C00000000000000000000000000000000000F9
:1037D00000000000000000000000000000000000E9
:1037E00000000000000000000000000000000000D9
:1037F00000000000000000000000000000000000C9
:10380000F8B500BFF8BC08BC9E467047990400009C
:103810000D060000E5060000BD0700001D080000C1
:08382000C10900001924000099
:0838280090F2FF7F0100000097
:10383000000000000A0400005495FF1F0501090262
:10384000A10185010509190129081500250195081F
:103850007501810205010930093109381581257F7B
:10386000750895038106C005010902A101850205BD
:103870000109300931150026FF7F7510950281027C
:10388000C012010002EF020140C0168704000101CE
:103890000203010018035400650065006E00730008
:1038A00079006400750069006E006F0009029600DF
:1038B000050100C032080B000202020104090400E5
:1038C000000102020100052400100105240101018C
:1038D00004240206052406000107058203100040A7
:1038E00009040100020A000000070503024000006D
:1038F00007058402400000090402000103010100E1
:10390000092111010001225500070581030800016A
:103910000904030001030000000921110100012234
:10392000450007058503080002090404000103009F
:10393000000009211101000122550007058603102E
:10394000000105010906A10175019508050719E0A7
:1039500029E715002501810295087501150025014B
:10396000050C09E909EA09E209CD09B509B609B763
:1039700009B881029505750105081901290591020B
:10398000950175039103950675081500257F0507B8
:103990001900297F8100C005010904A10115002536
:1039A00001750195200509190129208102150025BD
:1039B000073500463B017504950165140501093979
:1039C000814205010901A100150026FF03750A9532
:1039D0000409300931093209358102C0150026FF7A
:1039E00003750A9502093609368102C03E03530069
:1039F00065007200690061006C002F004B006500DB
:103A0000790062006F006100720064002F004D00B9
:103A10006F007500730065002F004A006F00790089
:103A200073007400690063006B00040309040C0355
:103A30000000000000000000000000000000000086
:103A400000000000FFFFFFFF262D303132333435F8
:103A5000363738394142434445464748494A4B4C3A
:103A60004D4E4F5051522F535455565758595A3A5C
:103A70002340273D22632E3C282B7C21242A293BEE
:103A80007E202C255F3E3F2001000200040008003C
:103A90001000200040008000000100020004000827
:103AA000090011002100410081000101010201040F
:103AB00001080A00120022004200820002010202F4
:103AC000020402080C0014002400440084000401D5
:103AD00004020404040810042004400480040005C7
:103AE00000061104210441048104010501061204A9
:103AF000220442048204020502061404240444043D
:103B00008404040504060300030405060708090AE3
:103B10000B0C0E0F010000003C8CFF1F000000008A
:103B2000E0370000C0370000A037000000000000B0
:103B30000000000000000000000000009C370000B2
:103B40000000000000000000000000000000000075
:103B50000000000000000000000000000000000065
:103B60000000000000000000000000000000000055
:103B70000000000000000000000000000000000045
:103B80000000000000000000000000000000000035
:103B90000000000000000000000000000000000025
:103BA0000000000000000000000000000000000015
:103BB0000000000000000000000000000000000005
:103BC00000000000000000000000000000000000F5
:103BD00000000000000000000000000000000000E5
:103BE00000000000000000000000000000000000D5
:103BF00000000000000000000000000000000000C5
:103C000000000000000000000000000000000000B4
:103C1000000000002C8DFF1F2C8DFF1F348DFF1F17
:103C2000348DFF1F3C8DFF1F3C8DFF1F448DFF1FF8
:103C3000448DFF1F4C8DFF1F4C8DFF1F548DFF1FA8
:103C4000548DFF1F5C8DFF1F5C8DFF1F648DFF1F58
:103C5000648DFF1F6C8DFF1F6C8DFF1F748DFF1F08
:103C6000748DFF1F7C8DFF1F7C8DFF1F848DFF1FB8
:103C7000848DFF1F8C8DFF1F8C8DFF1F948DFF1F68
:103C8000948DFF1F9C8DFF1F9C8DFF1FA48DFF1F18
:103C9000A48DFF1FAC8DFF1FAC8DFF1FB48DFF1FC8
:103CA000B48DFF1FBC8DFF1FBC8DFF1FC48DFF1F78
:103CB000C48DFF1FCC8DFF1FCC8DFF1FD48DFF1F28
:103CC000D48DFF1FDC8DFF1FDC8DFF1FE48DFF1FD8
:103CD000E48DFF1FEC8DFF1FEC8DFF1FF48DFF1F88
:103CE000F48DFF1FFC8DFF1FFC8DFF1F048EFF1F37
:103CF000048EFF1F0C8EFF1F0C8EFF1F148EFF1FE4
:103D0000148EFF1F1C8EFF1F1C8EFF1F248EFF1F93
:103D1000248EFF1F2C8EFF1F2C8EFF1F348EFF1F43
:103D2000348EFF1F3C8EFF1F3C8EFF1F448EFF1FF3
:103D3000448EFF1F4C8EFF1F4C8EFF1F548EFF1FA3
:103D4000548EFF1F5C8EFF1F5C8EFF1F648EFF1F53
:103D5000648EFF1F6C8EFF1F6C8EFF1F748EFF1F03
:103D6000748EFF1F7C8EFF1F7C8EFF1F848EFF1FB3
:103D7000848EFF1F8C8EFF1F8C8EFF1F948EFF1F63
:103D8000948EFF1F9C8EFF1F9C8EFF1FA48EFF1F13
:103D9000A48EFF1FAC8EFF1FAC8EFF1FB48EFF1FC3
:103DA000B48EFF1FBC8EFF1FBC8EFF1FC48EFF1F73
:103DB000C48EFF1FCC8EFF1FCC8EFF1FD48EFF1F23
:103DC000D48EFF1FDC8EFF1FDC8EFF1FE48EFF1FD3
:103DD000E48EFF1FEC8EFF1FEC8EFF1FF48EFF1F83
:103DE000F48EFF1FFC8EFF1FFC8EFF1F048FFF1F32
:103DF000048FFF1F0C8FFF1F0C8FFF1F148FFF1FDF
:103E0000148FFF1F1C8FFF1F1C8FFF1F248FFF1F8E
:103E1000248FFF1F2C8FFF1F2C8FFF1F348FFF1F3E
:103E2000348FFF1F3C8FFF1F3C8FFF1F448FFF1FEE
:103E3000448FFF1F4C8FFF1F4C8FFF1F548FFF1F9E
:103E4000548FFF1F5C8FFF1F5C8FFF1F648FFF1F4E
:103E5000648FFF1F6C8FFF1F6C8FFF1F748FFF1FFE
:103E6000748FFF1F7C8FFF1F7C8FFF1F848FFF1FAE
:103E7000848FFF1F8C8FFF1F8C8FFF1F948FFF1F5E
:103E8000948FFF1F9C8FFF1F9C8FFF1FA48FFF1F0E
:103E9000A48FFF1FAC8FFF1FAC8FFF1FB48FFF1FBE
:103EA000B48FFF1FBC8FFF1FBC8FFF1FC48FFF1F6E
:103EB000C48FFF1FCC8FFF1FCC8FFF1FD48FFF1F1E
:103EC000D48FFF1FDC8FFF1FDC8FFF1FE48FFF1FCE
:103ED000E48FFF1FEC8FFF1FEC8FFF1FF48FFF1F7E
:103EE000F48FFF1FFC8FFF1FFC8FFF1F0490FF1F2D
:103EF0000490FF1F0C90FF1F0C90FF1F1490FF1FDA
:103F00001490FF1F1C90FF1F1C90FF1F2490FF1F89
:103F10002490FF1F2C90FF1F2C90FF1F3490FF1F39
:103F20003490FF1F3C90FF1F3C90FF1F4490FF1FE9
:103F30004490FF1F4C90FF1F4C90FF1F5490FF1F99
:103F40005490FF1F5C90FF1F5C90FF1F6490FF1F49
:103F50006490FF1F6C90FF1F6C90FF1F7490FF1FF9
:103F60007490FF1F7C90FF1F7C90FF1F8490FF1FA9
:103F70008490FF1F8C90FF1F8C90FF1F9490FF1F59
:103F80009490FF1F9C90FF1F9C90FF1FA490FF1F09
:103F9000A490FF1FAC90FF1FAC90FF1FB490FF1FB9
:103FA000B490FF1FBC90FF1FBC90FF1FC490FF1F69
:103FB000C490FF1FCC90FF1FCC90FF1FD490FF1F19
:103FC000D490FF1FDC90FF1FDC90FF1FE490FF1FC9
:103FD000E490FF1FEC90FF1FEC90FF1FF490FF1F79
:103FE000F490FF1FFC90FF1FFC90FF1F0491FF1F28
:103FF0000491FF1F0C91FF1F0C91FF1F1491FF1FD5
:104000001491FF1F1C91FF1F1C91FF1F2491FF1F84
:0C4010002491FF1FFFFFFFFF00000200D3
:00000001FF
